:020000040800F2
:1000000030040020D5000008AB030008A703000857
:1000100000000000000000000000000000000000E0
:10002000000000000000000000000000CD050008F6
:1000300000000000000000001D040008CD060008BC
:10004000E7000008E7000008E7000008E7000008F4
:10005000E7000008E7000008E7000008E7000008E4
:10006000E7000008E7000008E7000008E7000008D4
:10007000E7000008E7000008E7000008E7000008C4
:10008000E7000008E700000800000000E7000008A3
:10009000E7000008E7000008E7000008E7000008A4
:1000A000E7000008E7000008E70000084D07000827
:1000B000E700000800000000E70000080000000062
:1000C0000348854600F02AF800480047B50B0008B1
:1000D000300400200448804704480047FEE7FEE75C
:1000E000FEE7FEE7FEE7FEE7D1060008C1000008D4
:1000F00030B50B46014600202022012409E00D46C0
:10010000D5409D4205D31D469540491B2546954047
:1001100040191546521E002DF1DC30BD064C01255C
:10012000064E05E0E36807CC2B430C3C984710349F
:10013000B442F7D3FFF7C8FFE80B0008080C00082B
:1001400000B589B00121480400F06AF90220079047
:10015000032108A801700021C17007A90920C00669
:1001600000F0B7F80121480200F06AF901A800F098
:10017000A8F8002001900021684601720020039039
:100180000590069001A9084800F080F80722022196
:10019000054800F00BF8044800F020F8012102485F
:1001A00000F010F809B000BD0024014010B50B4666
:1001B0000021846A1C43846200BF0C46144321461C
:1001C000416110BD002904D0826801231A43826076
:1001D00003E0826802231A438260704730B501460B
:1001E0000020002200238C680125ED072C438C6041
:1001F00000BF8C68E30FDB07521C0F242403A242CC
:1002000001D0002BF5D18C68E40FE407002C01D15C
:10021000086C00E0002030BD0146086C80B27047D9
:1002200030B5024600200023012424060C40002C97
:1002300005D0946801252D06AC43234600E01368E1
:100240001C460C40002C01D0012000E0002030BDF5
:1002500010B5002400BF0B490B48FFF7E1FF002851
:10026000F9D0094800F028F800BF04210648FFF73C
:10027000D7FF0028F9D00448FFF7CEFF04462046F8
:1002800010BD0000010000010024014010B5002253
:10029000C268084B1A400C7964030B6823438C68CE
:1002A0002343CC6823430C6923434C6923431A43FB
:1002B000C26010BD03D2FFFF816804221143816038
:1002C00070470021016001718160C160016141617D
:1002D0007047F0B50A4600210023002400BF3DE02E
:1002E00001258D402B4615681D402C469C4234D17B
:1002F0001579012D02D01579022D16D185684F0090
:100300000326BE40B543856055794E00B5408668EA
:1003100035438560858801268E40B5438580858874
:1003200096798E40B6B23543858005684F00032626
:10033000BE40B543056015794E00B54006683543AB
:100340000560C5684F000326BE40B543C560D5793A
:100350004E00B540C6683543C560491C1029BFD35F
:10036000F0BDF0B5002300244D07EE0E1546B54054
:100370002B46CD10AE0005462035AD594E07F70E81
:100380000F26BE40B543CE10B60007462037BD51FC
:10039000CD10AE003D46AD591D432C46CD10AD00ED
:1003A0003E467451F0BD00BFFEE7704700218278E1
:1003B000002A27D0184A03231B02D21803789B1067
:1003C0009B00D15802789207D30EFF229A400B4629
:1003D0009343194642789207120E03789B07DB0E6F
:1003E0009A4011430C4A03231B02D21803789B1036
:1003F0009B00D1500278D306DB0E01229A40064BB7
:100400001A6007E00278D306DB0E01229A40024B05
:1004100080331A607047000000E100E07047000080
:10042000002905D0054A52690243044B5A6104E091
:10043000024A52698243014B5A61704700100240E0
:10044000002905D0054A92690243044B9A6104E0F1
:10045000024A92698243014B9A6170470010024040
:10046000FEB50446002500260020019000900027DC
:10047000504840680C2108400546002D04D0042D4A
:1004800005D0082D28D105E04B48206027E04A48D8
:10049000206024E0474840680F2189040840064650
:1004A000444840680121090408400190B00C861CB2
:1004B0000198002803D14148704320600BE03D487B
:1004C000C06A0007000F401C00903B480099FFF7EE
:1004D0000FFE7043206002E03748206000BF00BF7D
:1004E00034484068F021084005462D093448475DEE
:1004F0002068F84060602F484068072109020840E2
:1005000005462D0A2E48475D6068F840A0602948DE
:10051000006BFF2101310840884202D02948E06089
:100520000DE024484068012189030840884203D037
:10053000A0684008E06002E0A0688008E0601D4814
:10054000006B40210840402802D01F48206102E093
:100550000120C00320611748006B102108401028BB
:1005600002D01548606101E0206860611148006BAD
:100570008007800F002802D1A068A06119E00D4813
:10058000006B8007800F012802D12068A06110E075
:100590000848006B8007800F022802D18003A06109
:1005A00007E00448006B8007800F032801D1024850
:1005B000A061FEBD0010024000127A0000093D005B
:1005C00020000020809FD5001280000070470000AE
:1005D0000CB5002001900090314800680121090409
:1005E00008432F49086000BF2D48006801214904D5
:1005F000084000900198401C01900098002804D108
:100600000521090301988842EED12548006801219F
:1006100049040840002802D00120009001E0002099
:1006200000900098012839D111201E4908601C480B
:1006300040681B4948600846406848600846406872
:100640003F21090488431649486008464068112143
:100650000904084312494860084600680121090658
:1006600008430F49086000BF0D4800680121490692
:1006700008400028F8D00A484068800880000849EF
:10068000486008464068022108430549486000BFA9
:10069000034840680C2108400828F9D10CBD00002F
:1006A0000010024000200240042806D106490969D2
:1006B00004221143044A116105E003490969042237
:1006C0009143014A1161704700E000E0704700006B
:1006D00010B51B4800680121084319490860084605
:1006E000406818490840164948600846006816499D
:1006F00008401349086008460068012189048843BE
:100700000F490860084640683F21090488430C49A6
:1007100048600846C06A00090001C8620846006BCC
:10072000FF2154318843064908630846406B40085E
:100730004000486300208860FFF74AFF10BD0000BA
:10074000001002400CB8FFF8FFFFF6FE10B502499A
:10075000024800F05DF810BD0501050000380140B9
:1007600010B58AB0044601214804FFF759FE012163
:100770008803FFF765FE01220921C806FFF7F1FD96
:1007800001220A210920C006FFF7EBFD03204002E9
:100790000890022108A80171032141710021817193
:1007A0000121C17108A90920C006FFF792FD02943A
:1007B000002003900490059007900C20069002A959
:1007C0000B4800F06DF801220A49094800F047F88B
:1007D0000121074800F010F81B2168460171022131
:1007E00041710121817101A8FFF7E0FD0AB010BD40
:1007F0000038014005010500002904D002680123EA
:100800001A43026003E00268520852000260704717
:1008100070B502460B4600240021002500201E046E
:10082000350ED9B201268E403146012D02D116680F
:10083000314006E0022D02D15668314001E0966851
:1008400031401C0C0126A6403446D66934400029AC
:1008500003D0002C01D0012000E0002070BDF8B5CD
:1008600003460024002600960025002018460E04AA
:10087000340ECEB200960127009EB7403D46022CB2
:1008800001D1001D02E0032C00D10830002A03D062
:1008900006682E43066002E00668AE430660F8BDB7
:1008A000F0B589B004460D460027002008900026C8
:1008B0002068400840002060666803210903304634
:1008C00088430646A86806436660266827480640AF
:1008D000E968686808432969084306432660A668F2
:1008E0000321090230468843064668690643A6602C
:1008F00001A8FFF7B5FD1E48844202D10798089071
:1009000001E00398089020680121C90308400028ED
:100910000CD02968089A5000FFF7EAFB07462968BF
:10092000089A5000FFF7E4FB0E4609E02968089892
:10093000FFF7DEFB074629680898FFF7D9FB0E464C
:1009400028684008B04200D87F1C20680121C903F4
:100950000840002806D03807460F384605490840A9
:1009600030430746A78109B0F0BD0000F3E9FFFF5F
:1009700000380140F0FF00000FB410B503A9044B8C
:10098000044A029800F018F810BC08BC04B01847DC
:10099000990B00081C00002002E008C8121F08C1C3
:1009A000002AFAD170477047002001E001C1121FF0
:1009B000002AFBD170470000FFB58DB0044600252A
:1009C00006E025280AD0109A0F999047641C6D1CE8
:1009D00020780028F5D1284611B0F0BD002701216C
:1009E000484A009700E00743641C23780846203BF0
:1009F00098401042F7D120782E2817D104200743C1
:100A00006078641C2A280CD10E98641C02C80091DE
:100A10000E900BE000990A22514330394018641CB3
:100A200000902078014630390929F3D92078002830
:100A3000D1D0642808D0692806D075281ED0109A15
:100A40000F9990476D1C5BE00A200E99019001C937
:100A50000E91002802DA40422D2102E0390504D52A
:100A60002B216A461172012103E0F90704D02021ED
:100A7000F7E70BAE0B910DE00021FAE70A200E9983
:100A8000019001C90E91F7E70199FFF731FB303171
:100A9000761E31700028F7D103A8801B203001900A
:100AA000780701D5009801E0012000900199884263
:100AB00001DD401A00E000200027009006E002A8B7
:100AC000109AC05D0F9990476D1C7F1C0B98874250
:100AD000F5DB04E0109A30200F9990476D1C0099C7
:100AE000481E00900029F5DC05E03078109A761C4D
:100AF0000F9990476D1C0199481E01900029F4DC64
:100B0000641C65E70928010010B50420C043FFF705
:100B1000CBFD084908480068FFF7EAFA40B20749E8
:100B20000870002008567D21C900484300B20449DE
:100B3000088010BD0048E8010000002014000020DB
:100B4000160000200146124A0023D35E0A465A438B
:100B5000104B5A6100229A611A46126901231A4306
:100B60000C4B1A6100BF0B4A1069C207D20F002A52
:100B700004D0012212040240002AF4D0054A12696E
:100B800052085200034B1A6100229A61704700001C
:100B90001600002000E000E000BF054AD269802373
:100BA0001A40002AF9D0024B203318817047000008
:100BB00000380140FFF7A8FFFFF7C2FA4B20C00141
:100BC000FFF7CEFD0AE0FFF743FB0446214604A0F1
:100BD000FFF7D2FEFF20F530FFF7B4FFF3E7000088
:100BE00025640D0A00000000080C00080000002029
:100BF0003000000098090008380C00083000002080
:100C000000040000A8090008006CDC0200000000DD
:100C100000000000010203040607080900000000AC
:100C200000000000000000000000000001020304BA
:080C3000010203040607080994
:04000005080000C12E
:00000001FF
